S0180000446F73696D65746572436F756E7465722E7372656380
S214400000C0F70020A12E40009D2E40009D2E4000AF
S2144000109D2E40009D2E40009D2E4000000000007A
S2144000200000000000000000000000009D2E400080
S2144000309D2E4000000000009D2E40009D2E40005A
S2144000409D2E40009D2E40009D2E40009D2E40003F
S2144000509D2E40009D2E40009D2E40009D2E40002F
S2144000609D2E4000211040003510400049104000B1
S2144000705D104000711040009D2E40009D2E4000B7
S2144000809D2E40009D2E40009D2E40009D2E4000FF
S2144000909D2E40009D2E40009D2E40009D2E4000EF
S2144000A09D2E40009D2E40009D2E40009D2E4000DF
S2144000B09D2E40009D2E40009D2E40009D2E4000CF
S2144000C09D2E40009D2E40009D2E4000A9164000CB
S2144000D09D2E40009D2E40009D2E40009D2E4000AF
S2144000E09D2E40009D2E40009D2E40009D2E40009F
S2144000F09D2E40009D2E400010B5054C237833B908
S214400100044B13B10448AFF300800123237010BDA5
S214400110940900200000000030D5400008B5064B8A
S2144001201BB106480649AFF300800648036813B182
S214400130054B03B1984708BD0000000030D540008D
S2144001409809002030D5400000000000024B1A7885
S214400150013AD2B21A707047C80A00200020704791
S214400160002070471D4B1B7813F0800F12D003F011
S2144001706003202B28D1194B5B78212B26D1174BB7
S214400180DB88072B24D1154B154A9A6007229A81A3
S2144001900120704703F06003202B1BD10F4B58788B
S2144001A0202804D0222814BF0020012070470B4B83
S2144001B0DB88072B10D1094B0A4A1A61084A9A6015
S2144001C007229A8101207047002070470020704720
S2144001D0002070470020704700207047140C002015
S2144001E0B0090020E9014000704700BF08B5002371
S2144001F0104A1370104A1380104AA1211170202112
S2144002005170538093800221D18013810C4A4FF461
S214400210E13111601371537108239371094B98476C
S214400220034620B1034A11780131C9B2117018460D
S21440023008BD00BFC80A0020F80A0020E00A0020D7
S214400240B00900200D0F400030B583B0424B1B78FC
S21440025013F0FF0F7ED1414B984730B1404B1C887E
S214400260404B9847844206D174E03D4B1C883E4B39
S214400270984784426ED0EFF31083D3F1010538BF20
S214400280002572B6BFF35F8F0022384B1A70384B8A
S2144002901C78E4B2374B33F81430DBB9364B1A8847
S2144002A001321A802D4B984718B9334B1B88632B65
S2144002B007D92A4B984768B12F4B1B88B3F5487F20
S2144002C008D2002D46D00122284B1A70BFF35F8F0C
S2144002D062B63FE00022284B1A80284B1B7813F06A
S2144002E0FF0F06D1944214BF00220122204B1A7001
S2144002F003E0D4F1010438BF00240122164B1A70E3
S21440030025B11A4B1A70BFF35F8F62B62546194B5C
S21440031033F81440403C18BF012464B10F4B984753
S21440032020B1104B98470E4B188007E00E4B98476D
S2144003300B4B188002E00022094B1A800D4B33F815
S21440034015300F4A0092812021460E4A02EB851254
S2144003500D4CA04703B030BDDC0A002041224000CF
S214400360D00A0020A922400099224000E800002040
S2144003703C0A0020400A0020EC0A0020F40A002034
S2144003808D034000440A0020F525400008B578B9A2
S214400390084B1B7813F0FF0F14BF00220122064BB8
S2144003A023F81200054B1870054B1870054B9847FC
S2144003B008BD00BF3C0A0020400A0020F40A002086
S2144003C0DC0A00204902400008B50020014B98474F
S2144003D008BD00BF4902400008B5064B1A78013AEE
S2144003E0D2B21A701B78044B98470022034B1A70FF
S2144003F008BD00BF380A0020190F4000D40A00206C
S214400400EFF3108372B6BFF35F8F0021094A117075
S214400410094A108880B2094A1178094A32F81120F0
S214400420101A2BB90122034B1A70BFF35F8F62B6C6
S214400430704700BFE8000020CC0A0020D80A002001
S214400440C40A002008B5034B9847003018BF012067
S21440045008BD00BF0104400010B582B0EFF3108322
S214400460D3F1010338BF002372B6BFF35F8F00217C
S2144004701E4A11701E4A1478E4B21E4A127812F0D0
S214400480FF0F07D11C4A128892B21C4931F814104B
S214400490914208D93BB30122144B1A70BFF35F8FC9
S2144004A062B6002020E00021134A11808C4214BF1F
S2144004B0002101210E4A117001210E4A117023B10C
S2144004C00A4B1970BFF35F8F62B600200C4B9847FB
S2144004D00C4B0093022001210B4A02EB841240236E
S2144004E00A4CA04700E0002002B010BDE800002003
S2144004F0D80A0020F00A0020CC0A0020C40A0020B7
S21440050045044000A1054000B8090020F5254000FC
S21440051010B50024154B1C70154B1C70154B1C70E9
S214400520154B1C70154B1C805C80154B1C80204660
S214400530144B9847144B1C70144B1C70144B1C8067
S214400540144B1C802046144B9847024658B1074B24
S21440055019780131C9B219701B78DBB2012B02D170
S21440056001210E4B1970104610BD00BF380A0020FE
S214400570DC0A0020F40A00203C0A0020400A002042
S214400580D00A002049024000F00A0020D80A002085
S214400590C40A0020CC0A002059044000D40A002097
S2144005A010B582B0D0B90E4B1B7813F0FF0F14BFB6
S2144005B00023012351B90B490091104601210A4AF4
S2144005C002EB83124023094CA04707E0084A22F872
S2144005D013100020074B1870074B984702B010BD09
S2144005E0D80A0020A1054000B8090020F5254000A3
S2144005F0C40A0020F00A00205904400008B5002034
S214400600014B984708BD00BF450440002DE9F04720
S214400610214B93F80690B9F1090F14BF4FF000092B
S2144006204FF0010900201D4C804607461C4D1D4ECC
S214400630EFF3108172B6BFF35F8F27702B889BB2A3
S2144006403278D2B221B901212170BFF35F8F62B6F2
S214400650154931F81210994207D8144B1B7813F0FD
S214400660FF0FE5D10020BDE8F08703EB821210496A
S21440067011F802A040EA0A0A01339BB22B8040469A
S2144006800C4B9847B9F1000F03D04FEA0A20C146F9
S214400690CEE75046BDE8F087B0090020E8000020CD
S2144006A0CC0A0020D80A0020C40A0020D40A002021
S2144006B0B80900205904400008B50020014B98476F
S2144006C008BD00BF0D064000EFF3108272B6BFF3C0
S2144006D05F8F0021134B1970134B1B78DBB2134905
S2144006E031F81300402813D11149097811F0FF0F53
S2144006F00ED11049097811F0FF0F09D101200D499C
S2144007000870D3F1010338BF002307490B7000205F
S214400710C0F140002AB90122024B1A70BFF35F8F26
S21440072062B67047E80000203C0A0020400A0020DD
S214400730DC0A0020F40A002008B5034B9847003036
S21440074018BF012008BD00BFC90640002DE9F04192
S2144007500C461B4B9E79092E14BF00260126194DC8
S214400760194FDFF874800020A84730B9174B1B7824
S21440077013F0FF0FF7D1BDE8F081EFF3108172B6AA
S214400780BFF35F8F00233B7098F80030DBB2104811
S21440079030F8132002F1010C20F813C002EB83134B
S2144007A00C4AD45421B901233B70BFF35F8F62B625
S2144007B016B124120026D6E70120BDE8F08100BF1E
S2144007C0B009002039074000E8000020D40A002085
S2144007D0400A0020440A00203C0A002008B5014692
S2144007E00020014B984708BD4D0740000F4B1B6843
S2144007F01B685A881A4403781844904210D24378AB
S214400800042B0FD08B4205D170474378042B0BD076
S2144008108B420AD0037818449042F6D300207047A3
S214400820002070470020704700207047FC0A0020D8
S21440083008B5034B987800F07F00024B984708BDF8
S214400840140C00204522400010B4164B1B7803B30E
S214400850154B1B681B681A7982421CD9134A1360D1
S2144008605C881C44A34218D25A78042A09D19A7844
S214400870824206D1DA788A4203D10C4A13600120BC
S2144008800CE01A781344A342EED3084A13600020C3
S21440089004E0002002E0002000E000205DF8044B69
S2144008A0704700BF020B0020FC0A0020040B00200B
S2144008B02DE9F84304460021124B98478046E8B19C
S2144008C0114B1B685B6853F82490D9F80C30984756
S2144008D0014620460B4B9847804678B10B4B1C6828
S2144008E005260B4D0B4F20463146A847044610B10F
S2144008F08078B847F7E7D9F8043098474046BDE8CF
S214400900F88300BF49084000FC0A0020040B002082
S214400910ED074000BD2340002DE9F0418046104BD6
S21440092098470346C8B10F4B1C6805260E4D0F4F1F
S21440093020463146A847044638B18078E178A288F8
S214400940B84703460028F3D107E0094B1B685B68AD
S21440095053F828301B68984703461846BDE8F08190
S21440096049084000040B0020ED074000B922400033
S214400970FC0A002008B5014B984708BD8921400075
S21440098070B50D4B1B7883B10C4B1B681B681B79ED
S2144009905BB100240A4E094D2046B0470134E4B20C
S2144009A02B681B681B79A342F6D80023024A1370B3
S2144009B0044A138070BD00BF020B0020FC0A0020D2
S2144009C0B1084000000B002038B50C4B1B789BB19B
S2144009D00B4B1B681A68127972B10024084D5B688D
S2144009E053F824301B6903B198470134E4B22B68AE
S2144009F01A681279A242F2D838BD00BF020B002016
S214400A00FC0A00202DE9F041854B00229A811A61AC
S214400A105A611B7813F0800F00F00682804AD28815
S214400A20002A40F00582FBE113F01F0340F081806E
S214400A307B49497806290DD0082970D0002978D1FD
S214400A40022A05D177480221774B9847012493E143
S214400A50002491E1724B5A88130A013B0E2B54D85E
S214400A60DFE803F0080F2B5353535353535353535A
S214400A70535322006D4B1B68184619786A4B9847AB
S214400A803AE0D2B2694B1B685B7C93423FD9674BD6
S214400A905B6853F8323018465988634B9847604B2A
S214400AA09B6802225A7027E0604B9B68002B30D030
S214400AB0184659885C4B98471EE0D2B2032A2AD87B
S214400AC0DFE812F004000900BA01BD0158480421CD
S214400AD0554B984710E0574C0320574A0023E15C9B
S214400AE022F8021F0133D9B28142F8D341000231C5
S214400AF0514801704C4B9847494BDA889B89934242
S214400B000BD9474B9A81012436E1002434E1002476
S214400B1032E1002430E100242EE101242CE1012AB8
S214400B2005D146480121404B9847012424E1002442
S214400B3022E1012B2AD13A4949780A2926D1012AAD
S214400B401ED13E4B1B78EBB1354B1D793C4B1E6896
S214400B5033681B79AB4217D928460021394B984752
S214400B600446002800F00881736853F82530DB6897
S214400B709847354B1870184601212B4B9847FBE099
S214400B800024F9E00024F7E00024F5E0022B40F0D2
S214400B90F580234B5B78002B40F0E980022A0BD18E
S214400BA01F4B1879294B9847294B18801846022125
S214400BB01D4B98470124DFE00024DDE013F01F03BF
S214400BC040F08A80164A5278013A082A00F2848019
S214400BD0DFE812F013008200CF0082000900820096
S214400BE08200820042000E4BDB8823B9194A0C4B28
S214400BF01A610124C0E00024BEE0094BDB8853B9EB
S214400C00074B5B88012B08D1064B1A8822F002025C
S214400C101A800124B0E00024AEE00024ACE000BF1F
S214400C20140C0020000B0020AD2240007400002071
S214400C30700000204000002044000020020B0020EE
S214400C40FC0A002049084000030B0020F523400022
S214400C50080B0020310840007C4BDB88002B31D14C
S214400C607B4B984700282FD0784B9A78794B1B6857
S214400C705B7C9A422ADC784B9847744B9B78774A41
S214400C8013702BB303F10053013B724A526802EBD8
S214400C90C3007349086052F833301B79D3B100253E
S214400CA02F46704E884628463946B04704460028A8
S214400CB062D00135EDB2D8F800301B681B79AB42E4
S214400CC0F1D859E0002457E0002455E0002453E0D2
S214400CD0012451E001244FE0012B1CD15B4A52789D
S214400CE00B2A18D1594BDB888BB95C4B1B7883B1E8
S214400CF0564B1D795E8828465B4B9847044600282D
S214400D003AD02846F1B2574B9847044634E0002480
S214400D1032E0002430E0022B30D14C4B5B78012B84
S214400D2002D0032B10D026E0484BDB8843B9474B14
S214400D305B883BB9454B18794C4B984704461BE0BB
S214400D40002419E0002417E0404BDB885BB93F4B9A
S214400D505B8853B93D4C2079454B98472079454BA5
S214400D609847044608E0002406E0002404E00024F7
S214400D7002E0002400E00024002C63D1334B1B78B3
S214400D8003F01F03012B1ED1344B1B78DBB12F4BD6
S214400D901C79334B1D682B681B79A34213D9204618
S214400DA00021354B984770B16B6853F82450EB6878
S214400DB0984701462046304B984720B1AB68984745
S214400DC0044600283ED1214B1B7803F01F03022B1C
S214400DD028D1224B1B78FBB1214B1B681A6812792D
S214400DE0E2B10025244FDFF878805B6853F8256031
S214400DF0F368984701462846B847044610B3B36898
S214400E0098470446F0B90135EDB2D8F800301A6874
S214400E101279AA42E9D815E0002413E0002411E034
S214400E2000240FE000240DE013F0600FA6D1C5E6C5
S214400E3013F0600FA2D1F7E51420104C4DE60120C8
S214400E400F4C4AE62046BDE8F08100BF140C002057
S214400E507D2240007400002081094000020B0020E3
S214400E60FC0A002019094000B10840001D2540003A
S214400E70492740003524400049084000280000200B
S214400E8008CF40002DE9F0410C46904660B9002A54
S214400E900EDD8F18094E0A4D306821462B6898475C
S214400EA00134BC42F8D106E04FF0FF30BDE8F08197
S214400EB00020BDE8F0814046BDE8F081300C0020BF
S214400EC0100C002008B5074B1B7843B10846064B6C
S214400ED09847D0F1010038BF0020404208BD0020AE
S214400EE008BD00BF0A0B0020DD07400010B50C46C9
S214400EF0044B1B780BB90B7010BD034B9847207002
S214400F0010BD00BF0A0B0020B90640000120014B6F
S214400F10187070470A0B00200022014B1A70704769
S214400F200A0B002070B500240A4B1C600A4A0B4B83
S214400F301A600B4A0B4B1A600B4B98470B4E3368A4
S214400F40986821460A4DA847336858682146A847FE
S214400F5070BD00BF300C0020C50E40002C0C002099
S214400F60ED0E4000100C00207509400018050020CA
S214400F70DD3740002DE9F84381460E46144B98472E
S214400F8005464846134B9847054017D0124F07F181
S214400F900C046C3754F80C3CB3420AD154F8081C85
S214400FA0294206D023683046984754F8083C25EA3C
S214400FB00305BC4202D01034002DEBD1074B1B6812
S214400FC023B1074B1B680BB148469847BDE8F883EA
S214400FD0B92A4000BD2A4000140B0020340C0020E3
S214400FE0100B0020F8B50B4C2468062C10D80A4F7E
S214400FF02601BD19B9516A60AB600699E9600134B3
S21440100004490C6011461A46044B98470020F8BD28
S2144010100120F8BD0C0B0020140B00207D2A400058
S21440102008B502480921024B984708BD000E0E40FD
S214401030750F400008B502480A21024B984708BD84
S21440104000100E40750F400008B502480B21024BB9
S214401050984708BD00120E40750F400008B502487C
S2144010600C21024B984708BD00140E40750F4000F7
S21440107008B502480D21024B984708BD00160E40A1
S214401080750F40002DE9F84305460C4691461B4B2C
S2144010909847804628464FF0FF31194B98472846D8
S2144010A0184B9847E7B207F01F0301269E40630996
S2144010B09B0003F1604303F56143C3F88060C3F8C7
S2144010C08061002C09DA07F00F074FEA09195FFA2A
S2144010D089F90D4A02F8079009E04FEA09195FFAC4
S2144010E089F904F1604404F5614484F800931E6075
S2144010F028464146054B9847BDE8F883BD2A400040
S214401100B52A4000B92A400014ED00E0AD2A400060
S214401110034658BB184A12782AB3EFF3108172B6CA
S214401120BFF35F8F154A1070154A9078013890705B
S214401130C9B90121114A1170BFF35F8F62B612E040
S214401140EFF3108172B6BFF35F8F00200B4A10702A
S2144011500B4A90780130907029B90121074A1170E6
S214401160BFF35F8F62B6044A13707047024A127824
S214401170002AE5D0F7E700BFC40B0020E8000020B7
S214401180080C0020034A0023136153619381024AEE
S21440119013707047140C0020C80B002082B0052244
S2144011A00E4B1A700E4B1A6B0092009A42F04F028A
S2144011B00092009A42F020020092009A1A6300239E
S2144011C00193019B132B06D800BF019B013301936B
S2144011D0019B132BF8D902B0704700BFC80B002004
S2144011E00040084082B003220E4B1A700E4B1A6B1A
S2144011F00092009A42F04F020092009A42F010028B
S2144012000092009A1A6300230193019B132B06D881
S21440121000BF019B01330193019B132BF8D902B009
S214401220704700BFC80B00200040084008B5024B7E
S2144012301B6903B1984708BD140C002070B58AB0EE
S214401240754B1B78032B1DD1744B1A6B0092009A7A
S21440125042F04F020092009A22F001020092009A59
S2144012601A6300230193019B132B06D800BF019BF2
S21440127001330193019B132BF8D9694B9847694B6F
S2144012809847C6E0684B1B88684A9489E41AA4B21B
S214401290002C33D1664A11880B449BB21380634AB4
S2144012A0D2889A4202D0634B1B78EBB104225A4B49
S2144012B01A705A4B1A6B0292029A42F04F020292EE
S2144012C0029A22F001020292029A1A6300230393C2
S2144012D0039B132B00F29D8000BF039B01330393B7
S2144012E0039B132BF8D994E0504B5B696BB198473E
S2144012F058B100224C4B1A804C4B9C893F2C04D949
S21440130000224C4B1A70402402E00122494B1A70CE
S214401310464B9968444B1E88EFF31080D0F101008D
S21440132038BF002072B6BFF35F8F0022424B1A7060
S2144013303A4B1B6B13F0020F01D124BB2DE028B1B2
S21440134001223D4B1A70BFF35F8F62B60422324BC8
S2144013501A70324B1A6B0492049A42F04F0204926F
S214401360049A22F001020492049A1A630023059319
S214401370059B132B4DD800BF059B01330593059B5A
S214401380132BF8D945E031440B46244D13F8012B76
S2144013902A655A1AD2B2A242F8D33444224B1C8051
S2144013A01E4B1A6B0692069A42F04F020692069A17
S2144013B042F010020692069A1A6300230793079B90
S2144013C0132B06D800BF079B01330793079B132BAD
S2144013D0F8D9124B1A6B0892089A42F04F020892BC
S2144013E0089A22F001020892089A1A630023099389
S2144013F0099B132B06D800BF099B01330993099B11
S214401400132BF8D928B101220B4B1A70BFF35F8F0C
S21440141062B60AB070BD00BFC80B0020004008404E
S2144014202D12400085114000C60B0020140C0020F1
S214401430840B0020C90B0020E800002038B5034686
S214401440447C14F0100F15D0447C6FF3041444749D
S21440145004687CB102F10C05074850F8250010F4EA
S214401460806F18BF42F08002012914BF002001207F
S2144014709968A04738BD00BF0040084084B0421E6F
S21440148002EB82022F4B03EB8202830003F14023E0
S21440149003F50023196B01F0420142290ED0196B67
S2144014A011F0020F04D0517C6FF38301517409E0B0
S2144014B0517C012060F38301517424E0517C11F08B
S2144014C00C0F20D1196B0091009941F04F0100910B
S2144014D0009921F0020100910099196300230193BD
S2144014E0019B132B06D800BF019B01330193019B40
S2144014F0132BF8D918B3032821D0537C012161F36C
S214401500830353741BE0196B0291029941F04F011B
S2144015100291029921F04001029102991963002339
S2144015200393039B132B06D800BF039B01330393FF
S214401530039B132BF8D9537C6FF38303537404B087
S214401540704700BF880B00202DE9F00783B00746A0
S214401550461E06EB8606524B03EB8606737CC3F3A9
S214401560810320B1032814BF0222012200E0012299
S2144015709A4240F38980F368B268934204D3747CFD
S21440158014F0400F00F0828074681C44C3EB0209DC
S214401590328AC2F30902914526BF91464FF00008B1
S2144015A04FF001084B44F360B9F1070F26D92346A4
S2144015B0A9F1080A4FEADA0A04F1080C0CEBCA0C47
S2144015C0820002F1402202F500221D7815655D7802
S2144015D015659D781565DD7815651D7915655D7908
S2144015E015659D791565DD79156508336345ECD13C
S2144015F00AF1010A04EBCA0409F00709B9F1000F21
S21440160009D0A144274D14F8012B07F1140345F8DF
S21440161023204C45F7D1737CC3F38102013262F339
S21440162083037374E1B1800000F1402000F5002090
S214401630036B0093009B43F04F030093009B43F0E3
S21440164010030093009B036300230193019B132B1D
S21440165006D800BF019B01330193019B132BF8D999
S214401660B8F1000F03D0737C6FF386137374F2687F
S214401670B3689A420CD3737C13F0400F0AD143F000
S21440168080037374002006E0012004E0002002E09E
S214401690012000E0012003B0BDE8F007704700BF1E
S2144016A0880B0020004008402DE9F047B0B0944B2E
S2144016B0984760B9934BDB6913F4807F07D172B6C5
S2144016C0BFF35F8F0022904B1A7000F015BD2320A9
S2144016D08E4B98478B4B9B6913F4006F0CD0894B0D
S2144016E0DB6913F4006F07D04FF40062854B1A6233
S2144016F0874B984700F000BD824BDB6913F0010F23
S21440170000F0F1817F4B1B6B13F0040F00F0C0809C
S214401710804B1B781BB1804B9847804B9847794B42
S2144017201B6BC3F30A43082B1CD0764B1A6B0292F2
S214401730029A42F04F020292029A22F00402029269
S214401740029A1A6300230393039B132B06D800BF09
S214401750039B01330393039B132BF8D9704B984795
S21440176000F0CABC6F4B03F1080066490A6D03F8E7
S214401770012F8342FAD16C4B9847E0B9614B1A6B04
S2144017800492049A42F04F020492049A22F0040211
S2144017900492049A1A6300230593059B132B06D8DC
S2144017A000BF059B01330593059B132BF8D95C4B73
S2144017B0984700F0A1BC5D4B93F90030002B3DDA12
S2144017C0504B1A6B0692069A42F04F020692069AC1
S2144017D042F080020692069A1A6300230793079BFC
S2144017E0132B06D800BF079B01330793079B132B89
S2144017F0F8D9444B1A6B0892089A42F04F02089266
S214401800089A22F004020892089A1A630023099361
S214401810099B132B06D800BF099B01330993099BEC
S214401820132BF8D90023424A1380424A13800222DF
S214401830384B1A70404B984700F05EBC314B1A6BE1
S2144018400A920A9A42F04F020A920A9A22F0040238
S2144018500A920A9A1A6300230B930B9B132B06D803
S21440186000BF0B9B01330B930B9B132BF8D92F4BCD
S214401870DB881BB9314B984700F03EBC00232C4A0E
S21440188013802C4A13800122224B1A7000F034BC7D
S2144018901C4B1B6B13F0010F03D0274B984700F0EF
S2144018A02BBC184B1B6B13F0020F00F01781194B23
S2144018B01B78012B44D0022B01D0042B02D1164BAF
S2144018C0984701E0164B98470E4B1A6B0C920C9AB1
S2144018D042F04F020C920C9A22F002020C920C9AA2
S2144018E01A6300230D930D9B132B06D800BF0D9B48
S2144018F001330D930D9B132BF8D9084B9847FBE308
S2144019008D2E400000400840E8000020AD2D4000ED
S214401910C9094000C80B00202D1240008511400028
S2144019209D114000130C0020050A4000140C0020B6
S214401930840B0020C60B00203D124000E5114000FD
S214401940904B196BC1F30A418F4B9B898F4A158880
S2144019506A189342AEBF89B2C5EB030399B28A4B6D
S21440196098682844A9B10346864C226D03F8012B9B
S2144019701A1AD2B28A42F8D30D44ADB2834B1D80B8
S214401980402906D1804BDA88814B1B882B449A42EB
S2144019903EDC7D4B9D815B69F3B19847E0B97D4B5A
S2144019A09847784B1A6B0E920E9A42F04F020E9260
S2144019B00E9A22F002020E920E9A1A6300230F939A
S2144019C00F9B132B00F2988300BF0F9B01330F939E
S2144019D00F9B132BF8D98FE36A4B1A6B1092109A11
S2144019E042F04F021092109A22F002021092109A81
S2144019F01A6300231193119B132B06D800BF119B2B
S214401A0001331193119B132BF8D9634B984773E31B
S214401A105D4B9B89AB4246D15B4B5B69E3B95D4B03
S214401A209847584B1A6B1292129A42F04F021292F3
S214401A30129A22F002021292129A1A630023139309
S214401A40139B132B00F2588300BF139B0133139351
S214401A50139B132BF8D94FE39847E0B94D4B984763
S214401A60484B1A6B1492149A42F04F021492149AEE
S214401A7022F002021492149A1A6300231593159BBF
S214401A80132B00F2398300BF159B01331593159B2A
S214401A90132BF8D930E33E4A3C4B18881188014452
S214401AA0118000221A80374B1A6B1692169A42F013
S214401AB04F021692169A22F002021692169A1A634D
S214401AC000231793179B132B00F2168300BF179B18
S214401AD001331793179B132BF8D90DE3294B1B6B38
S214401AE013F0080F06D1DFF8B4C064460123254A38
S214401AF01E461AE0234B1A6B0092009A42F04F02A1
S214401B000092009A22F008020092009A1A6300237C
S214401B100193019B132B00F2EF8200BF019B013320
S214401B200193019B132BF8D9E6E25FFA83F891699B
S214401B301F4606FA03F50D4200F0F181A1469900D2
S214401B4001F1402101F50021086B10F0420F44D00E
S214401B50A268E368B4F810A0CAF3090A606818449B
S214401B600C460E6BC6F30A46002E00F0B682D11A1B
S214401B70B14200F2A982C9F80C20002940F0AA829E
S214401B80B6E200BF00400840140C0020C60B002000
S214401B90840B00209D114000E5114000880B00207A
S214401BA0226DC25401338B42FAD34046954B984738
S214401BB017B9B24540F2A082236B13F0200F40F0D5
S214401BC09B82914B5D61D9F80C30C9F80830484685
S214401BD0002142468D4B98478EE2086B10F0010F6D
S214401BE000F07381637CC3F38102033202F0030288
S214401BF062F38303637413F0200F74D0002A36D048
S214401C00BA0002F1402202F50022136B1893189B8B
S214401C1043F04F031893189B43F010031893189BF8
S214401C20136300231993199B132B06D800BF199BE7
S214401C3001331993199B132BF8D9136B1A931A9BDC
S214401C4043F04F031A931A9B23F001031A931A9BEF
S214401C50136300231B931B9B132B00F24D8200BF84
S214401C601B9B01331B931B9B132BF8D944E2BA00F2
S214401C7002F1402202F50022136B1C931C9B43F09A
S214401C804F031C931C9B23F001031C931C9B136364
S214401C9000231D931D9B132B06D800BF1D9B0133AD
S214401CA01D931D9B132BF8D9136B1E931E9B43F05D
S214401CB04F031E931E9B43F020031E931E9B1363ED
S214401CC000231F931F9B132B06D800BF1F9B013377
S214401CD01F931F9B132BF8D999F811306FF34513B8
S214401CE089F8113008E2637CDB090AD0637C6FF325
S214401CF0C7136374E368A360204600214246434B03
S214401D009847D9F80C20D9F808309A4234D399F835
S214401D10113013F04C0F2FD1EFF3108372B6BFF390
S214401D205F8F00213A4A1170374A55612BB901221C
S214401D30374B1A70BFF35F8F62B6BB0003F1402388
S214401D4003F500231A6B2092209A42F04F0220920D
S214401D50209A22F001022092209A1A6300232193AF
S214401D60219B132B00F2C88100BF219B0133219396
S214401D70219B132BF8D9BFE1B8F1000F00F0828009
S214401D80B8F1030F7ED099F8113013F00C0F43D002
S214401D90BA0002F1402202F50022136B2293229BE6
S214401DA043F04F032293229B43F010032293229B3F
S214401DB0136300232393239B132B06D800BF239B38
S214401DC001332393239B132BF8D9136B2493249B23
S214401DD043F04F032493249B23F001032493249B36
S214401DE0136300232593259B132B06D800BF259B02
S214401DF001332593259B132BF8D940460021054BEC
S214401E00984779E17D144000004008403D1440006A
S214401E10E80000204915400040460121674B98479E
S214401E2070B999F811306FF3C71389F81130D9F8A3
S214401E300C30C9F80830484600214246604B984767
S214401E40BB0003F1402303F500231A6B2692269A23
S214401E5042F04F022692269A22F001022692269AB5
S214401E601A6300232793279B132B06D800BF279B74
S214401E7001332793279B132BF8D9404600214F4B1D
S214401E80984739E1404601214C4B9847BB0003F147
S214401E90402303F500231A6B2892289A42F04F02FB
S214401EA02892289A22F001022892289A1A63002340
S214401EB02993299B132B00F21F8100BF299B0133D6
S214401EC02993299B132BF8D916E1096B11F0080FBB
S214401ED025D09A0002F1402202F50022136B2A9385
S214401EE02A9B43F04F032A932A9B23F008032A9306
S214401EF02A9B136300232B932B9B132B06D800BFE0
S214401F002B9B01332B932B9B132BF8D9136B03F48A
S214401F10E063B3F5807F00F0EF80136BECE00133B5
S214401F201434042B7FF401AEDBE0264BDB6913F45C
S214401F30005F13D1234B9B6913F4007F04D0214BE1
S214401F40DB6913F4007F09D11E4B9B6913F4806F45
S214401F5014D01C4BDB6913F4806F0FD0194C4FF430
S214401F601853236263610120174B98474FF48073E0
S214401F70236223614FF400632361BDE0114B9B69EC
S214401F8013F4807F24D00F4BDB6913F4807F1FD07F
S214401F900C4B4FF480721A625A614FF400521A6129
S214401FA04FF400721A614FF480621A612320074B87
S214401FB098470020044B98479EE000BF49154000D4
S214401FC03D1440000040084011114000052E4000DE
S214401FD04B4BDB6913F4805F00F08E804FF48052E9
S214401FE0474B1A62654600240127464E0134E4B248
S214401FF0284639462246B0471435032CF6D1424B84
S21440200098473F4B5A6822F001025A605A6822F0BD
S21440201002025A609A6842F480729A609A6822F085
S2144020207F029A601A6B2C922C9A42F04F022C92A6
S2144020302C9A22F4074222F080022C922C9A42F4E8
S21440204000422C922C9A1A6300232D932D9B132B1F
S21440205006D800BF2D9B01332D932D9B132BF8D90B
S214402060274B1A6B2E922E9A42F04F022E922E9AA1
S21440207042F400422E922E9A1A6300232F932F9BEF
S214402080132B06D800BF2F9B01332F932F9B132B68
S214402090F8D9EFF3108372B6BFF35F8F00211B4A67
S2144020A011700121164A116123B9184B1970BFF3FC
S2144020B05F8F62B6164B9847114B4FF480721A6189
S2144020C04FF400621A6117E03344C9F80C303146C9
S2144020D0002700E00127002362E540460D4B984765
S2144020E067E5074B9B6913F4005F7FF41EAF21E75B
S2144020F04046084B98475FE530B0BDE8F08700BFE4
S214402100004008403D14400081094000E80000209F
S214402110851140007D14400010B5EFF3108472B670
S214402120BFF35F8F0022144B1A700120134B984761
S2144021302320134B9847134B5A6F22F480725A67EA
S2144021405A6F42F400725A674FF480721A614FF425
S21440215000521A614FF400721A614FF480621A619D
S2144021604FF400621A612CB90122034B1A70BFF378
S2144021705F8F62B610BD00BFE8000020111140001E
S214402180AD2D40000040084038B5EFF3108472B6DD
S214402190BFF35F8F0025214B1D702320204B9847AF
S2144021A0204B9847204B502283F8232308225A601E
S2144021B02B461E489900CA1800EB8202527C1944EE
S2144021C000EB810102F083026FF3C7124A740133B9
S2144021D0032BEFD14FF48020154B98470023154A28
S2144021E01370EFF3108272B6BFF35F8F0B490B701C
S2144021F0114BD9780131D9702AB90122074B1A7090
S214402200BFF35F8F62B60D4B98472CB90122034B44
S2144022101A70BFF35F8F62B638BD00BFE80000207B
S214402220AD2D4000F52A400000E100E0880B00207C
S214402230792E4000C40B0020080C002019214000D5
S214402240002070470C4B5A6822F001025A609A6888
S21440225022F480729A6070B1996800F07F0221F093
S2144022607F010A439A609A6842F480729A605A687C
S21440227042F001025A60704700400840054B5B68D8
S21440228013F0010F1DBF034B986800F07F0000203D
S214402290704700BF00400840024B1868C0F30A0071
S2144022A0704700BF0040084000207047014B9860D0
S2144022B099817047140C002070B483B000F00F036F
S2144022C0032B66D89C0004F1402404F50024256BBB
S2144022D015F4004F5FD101F00305012D03D1002B0B
S2144022E05BD0032B5BD01D1FEDB2012D8CBF40256C
S2144022F04FF40075954254DB5D1E05EB85052D4E6B
S21440230006EB85052E8A62F309062E826A7C02F069
S2144023107F026FF345126A74C00903D0D2B26FF3DE
S21440232083026A74244A956A012606FA03F31D431B
S2144023309562956A25EA03039362236B0093009B9C
S21440234043F04F030093009B23F4074323F080039E
S214402350009338B141F00402120202F4E06242F403
S214402360004204E00A0202F4E06242F40042009BAB
S21440237013430093009B236300230193019B132B7D
S21440238011D800BF019B01330193019B132BF8D951
S2144023900BE000200AE0002008E0002006E00020D5
S2144023A004E0002002E0012000E0012003B070BC01
S2144023B0704700BF880B00200040084008B500F07A
S2144023C00F02032A11D8930003F1402303F500239C
S2144023D0196B21F400411963501E00EB8000034B3B
S2144023E003EB80000121024B984708BD880B002074
S2144023F03D14400000F00F00032815D8431E03EBA1
S21440240083030A4A02EB83035B7C13F0200F09D157
S2144024100C30074B53F8203013F0280F0CBF002029
S214402420012070470120704700207047880B00202D
S2144024300040084010B483B000F00F02032A5DD875
S214402440EFF31081D1F1010138BF002172B6BFF31E
S2144024505F8F00242E4B1C7010F0800F24D0531E2C
S21440246003EB83032B4800EB830302F10C042A485A
S21440247050F8240010F0100F04D1587CC0F38100AF
S214402480012811DD587C40F020005874012303FADF
S21440249002F2214B1A61002932D001201C4B1870E1
S2144024A0BFF35F8F62B62EE0930003F1402303F53F
S2144024B00023186B0090009840F04F000090009862
S2144024C040F0200000900098186300230193019B81
S2144024D0132B06D800BF019B01330193019B132B9E
S2144024E0F8D9012303FA02F20B4B1A6151B10120CD
S2144024F0074B1870BFF35F8F62B604E0002002E01F
S214402500012000E0012003B05DF8044B704700BF97
S214402510E8000020880B002000400840F0B585B059
S21440252000F00F00032859D8304C431E03EB8303BA
S2144025309D0061194B7C6FF345134B74820002F18A
S214402540402202F50022136B13F0200F48D0136B85
S2144025500093009B43F04F030093009B23F020031F
S2144025600093009B136300230193019B132B06D813
S21440257000BF019B01330193019B132BF8D91C4BE1
S2144025809E6A012707FA00F006439E629E6A26EA84
S21440259000009862136B0293029B43F04F03029332
S2144025A0029B23F008030293029B136300230393CA
S2144025B0039B132B06D800BF039B01330393039B57
S2144025C0132BF8D94B7C13F0100F0BD04B7C6FF3CA
S2144025D004134B7463599847012004E0002002E03E
S2144025E0012000E0012005B0F0BD00BF880B0020B0
S2144025F0004008402DE9F04700F00F04032C00F29D
S2144026008880A50005F1402505F500252E6B16F4BB
S214402610004F00F08180DFF82CC1661E06EB860670
S214402620B7000CEB070696F8118018F0200F76D10D
S214402630D5F8308018F0200F74D1EFF31088D8F119
S214402640010A38BF4FF0000A72B6BFF35F8F4FF0F3
S2144026500009DFF8E48088F8009096F8118018F0BA
S214402660100F0BD0BAF1000F5FD00122324B1A7018
S214402670BFF35F8F62B64846BDE8F08796F8118094
S21440268048F0100886F81180BAF1000F08D04FF0D5
S2144026900109DFF8A48088F80090BFF35F8F62B628
S2144026A07260B3600022F260089A4CF8072021B9A5
S2144026B0D3F1010238BF002200E00122737C62F3AE
S2144026C086136FF3C7137374EFF3108672B6BFF3B7
S2144026D05F8F0022184B1A700122A240174B1A61D6
S2144026E010F0800F0CD02B6B13F0110F08D1204642
S2144026F00121134B984718B120460021104B9847AC
S214402700B6B901200C4B1870BFF35F8F62B6BDE8B8
S214402710F0870020BDE8F0870020BDE8F087002065
S214402720BDE8F0870020BDE8F0870020BDE8F087D0
S2144027300120BDE8F08700BFE800002000400840C8
S21440274049154000880B0020F0B585B000F00F0416
S214402750032C00F29080EFF3108372B6BFF35F8FC6
S2144027600021464A11700126A640454A56612BB9BB
S2144027700122424B1A70BFF35F8F62B610F0800F93
S21440278009D1A50005F1402505F500252B6B13F072
S214402790420F57D15DE0A30003F1402303F5002329
S2144027A01A6B12F0100F2AD08CB1032C0FD01A6B74
S2144027B022F010021A631A6B12F0100FFBD11A6B3C
S2144027C042F010021A631A6B12F0100FFBD01A6B0D
S2144027D00092009A42F04F020092009A22F01002B5
S2144027E00092009A1A6300220192019A132A06D890
S2144027F000BF019A01320192019A132AF8D91A6B46
S2144028000292029A42F04F020292029A22F001028B
S2144028100292029A1A6300230393039B132B06D853
S21440282000BF039B01330393039B132BF8D9631E0E
S21440283003EB8303134A02EB83035A7C6FF3830252
S2144028405A7406E0104F2046B8472B6B13F0420FE1
S214402850F9D10B4B9A6A32439A629A6A22EA060682
S2144028609E62601E00EB8000064B03EB8000012159
S2144028702246064B984705B0F0BD00BFE800002052
S21440288000400840880B00207D1440003D14400066
S2144028902DE9F0410E461546013802280FD892B170
S2144028A00024DFF83C800D4FD8F80000315D3B68CF
S2144028B0984700280ADB0134A542F5D10AE04FF0DC
S2144028C0FF30BDE8F0810020BDE8F0814FF0FF30DA
S2144028D0BDE8F0812046BDE8F08100BF2C0C00200A
S2144028E0300C002021F00061B1F1405F0CBF836BDB
S2144028F0C36B13420CBF00200120704710B44264E3
S214402900B1F1C05F2ED008D8B1F1006F14D0B1F14C
S214402910805F1DD0002935D135E0B1F1205F32D03F
S21440292003D8B1F1005F27D02CE0B1F1405F2AD048
S214402930B1F1605F27D025E0016F046FD34321409B
S21440294019400167416F446F21400B40436719E0CF
S214402950036F13430367436F416F0B4023EA020341
S21440296043670FE0036F016F0B4023EA02030367E0
S214402970436F1343436705E0036F13430367436F97
S2144029801343436742605DF8044B7047416412F05E
S214402990010F14BF4166016612F00A0F14BF0162B0
S2144029A0416212F0020F02D0C0F8801004E012F02C
S2144029B0080F18BFC0F8841041610160704700BF1F
S2144029C010B44164019C0CB1416600E001660BB155
S2144029D0016500E041650AB1016300E041630161C1
S2144029E001605DF8044B7047F0B583B007460C466F
S2144029F016461D46B1F1005F14D009D8B1F1805F8C
S214402A0010D0B1F1C05F0DD0B1F1006F2CD109E00C
S214402A10B1F1405F18D0B1F1605F15D0B1F1205FE1
S214402A200CD021E0384621463246114B984715F0E7
S214402A30010F14BF7E663E66012016E011461A4618
S214402A400C4B9847012010E005F0010300933846F0
S214402A503146B4F1605F14BF00220122C5F3800303
S214402A60054CA047012000E0002003B0F0BD00BFA9
S214402A70FD2840008D294000C129400012F0100F6B
S214402A8010D0C0F8B01012F0200F14BFC0F8D41009
S214402A90C0F8D01012F0400F14BFC0F8C010C0F8F5
S214402AA0C4107047C0F8B410704700BFC36C0164D0
S214402AB0704700BF41647047C06C7047806C704779
S214402AC010B489014318022444504FF0FF319962F4
S214402AD0196A5A605DF8044B704700BF0123C0F87E
S214402AE0C0307047890105234350704700EB811181
S214402AF00869704710B500203E210A4B98470A4C9B
S214402B00A0470028FCD0094B9847094A094B9A62CF
S214402B10094CA0470028FCD00320084B9847084B98
S214402B20984710BD292D40007D2D40008D2D40003A
S214402B30013F0F2000040E409D2D40005D2E4000BA
S214402B406D2E400010B50E480E4B984700203E2193
S214402B500D4B98470D4CA0470028FCD00C4B98478F
S214402B600C4A0D4B9A620D4CA0470028FCD0102012
S214402B700B4B98470B4B98470B48024B984710BD5A
S214402B80000E270785304000292D40007D2D40004F
S214402B908D2D4000013F0F2000040E409D2D40002B
S214402BA0C52C4000752F400000D8B80510B54FF42E
S214402BB00042404B5A6009203F4CA0470A20A0479D
S214402BC00B20A0470C20A0470D20A0473B4B0122DE
S214402BD01A61C3F8A0201A6339494FF480120A617B
S214402BE0C1F8A0200A634FF400100861C1F8A000A5
S214402BF008634FF400215961C3F8A0105966C3F822
S214402C00901059651962C3F88410186F20F400209C
S214402C101867586F20F400205867C3F8C010C3F8F0
S214402C20D410C3F8B0105A61C3F8A0205A66C3F84F
S214402C3090205A651A62C3F88420196F21F48011D7
S214402C401967596F21F480115967C3F8C020C3F83B
S214402C50D020C3F8B02002225A61C3F8A0205A669A
S214402C60C3F890205A651A62C3F88420196F21F081
S214402C7002011967596F21F002015967C3F8B42061
S214402C8004225A61C3F8A0205A66C3F890205A65B9
S214402C901A62C3F88420196F21F004011967596F2E
S214402CA021F004015967C3F8C020C3F8D420C3F804
S214402CB0B02010BD50180E40AD2D4000000E0E4006
S214402CC000140E40174B1A6B22F070021043186324
S214402CD09B6E13F0080F09D14FF40063114901E0D1
S214402CE0013B19D08A6E12F0080FF9D00D4B1A6BC3
S214402CF022F0030242F002021A63986E10F00800B7
S214402D000CD14FF40063074901E0013B08D08A6EBE
S214402D1012F0080FF9D07047012070470020704726
S214402D200120704700040E4038B111490B6A114A21
S214402D301A40114B13430B6270470D4A136A23F433
S214402D405C1323F0030343F45C1343F001030902CE
S214402D5089B20B431362936E13F0010FFBD0044A03
S214402D60136A43F09B7343F480331362704700BF8B
S214402D7000040E40FCFFC8FE02003701024B986E6E
S214402D8000F48030704700BF00040E404FF0005201
S214402D90014B9A62704700BF00040E40024B986E8B
S214402DA000F00200704700BF00040E402F2820D8D5
S214402DB01F280DD8124B9A69012383401A4093422C
S214402DC019D0012303FA00F00D4B1861002070471C
S214402DD00B4BD3F808212038012383401A409342F6
S214402DE00BD0012303FA00F0054BC3F80001002086
S214402DF0704701207047002070470020704700BF92
S214402E0000040E402F2820D81F280DD8124B9A6950
S214402E10012383401A40934219D1012303FA00F05C
S214402E200D4B5861002070470B4BD3F808212038D3
S214402E30012383401A4093420BD1012303FA00F04A
S214402E40054BC3F80401002070470120704700205E
S214402E5070470020704700BF00040E40000200F498
S214402E607060014B9863704700040E408022014B0F
S214402E701A60704700040E40034B1A6FC0F31200EE
S214402E8002431A67704700BF00040E40024B187892
S214402E9080F00100704700BFCA0B0020FEE700BF6D
S214402EA010B5254B254A9A4203D0254B224A9A42D2
S214402EB004D3244B244A9A420FD31AE0234B244C83
S214402EC0E41A24F00304043400231B481B495A58D0
S214402ED01A500433A342FAD1EBE71E4B1E49C91AD7
S214402EE021F003011A1D1144002243F8042F8B429F
S214402EF0FBD11A4B1A4A22F07F029A60EFF31082F7
S214402F0072B6BFF35F8F0021164B1970164B1968C7
S214402F1041F470011960BFF34F8FBFF36F8F2AB92A
S214402F200122104B1A70BFF35F8F62B60F4B984763
S214402F300F4B9847FEE700BF0000002030D540000A
S214402F4094090020C0C700209409002004000020F7
S214402F509709002090090020BBC7002000ED00E044
S214402F6000004000E800002088ED00E09D3540006D
S214402F70413440003C4B1B6B03F00303012B0FD046
S214402F8013B1022B29D057E0384B5B6913F0800F02
S214402F9014BF4FF400424FF4FA42354B1A604BE0F0
S214402FA0314B1B6A13F0807F03D0324A304B1A6095
S214402FB042E0314A2E4B1A602B4B1B6A03F07003DB
S214402FC0102B02D0202B04D036E02C4A284B1A6017
S214402FD032E0284A264B1A602EE0234B1B6A13F039
S214402FE0807F03D0234A224B1A6012E0224A204BAD
S214402FF01A601D4B1B6A03F07003102B02D0202B67
S21440300004D006E01D4A1A4B1A6002E0194A184BD3
S2144030101A60154B1B6B03F00303022B0CD1124BAB
S214403020986A996A124BC0F30A401A6800FB02225B
S214403030C9B2B2FBF1F21A600B4B1B6B03F0700384
S214403040702B07D10A4B1A680D49A1FB02025208A1
S2144030501A607047044B196B054BC1F302111A688E
S214403060CA401A60704700BF00040E4010180E4059
S214403070EC000020001BB70000093D0000127A005B
S214403080ABAAAAAA124B984204D84FF08062114BC2
S2144030901A607047104B984203D8104A0D4B1A607E
S2144030A070470F4B984203D80E4A0A4B1A60704737
S2144030B00D4B984203D80D4A064B1A6070470C4B8E
S2144030C0984294BF4FF004220A4A024B1A60704757
S2144030D0FF2C3101000A0E40FF5962020001000435
S2144030E0FF86930300020004FFB3C40400030004F9
S2144030F0FFE0F50500050004094B1B6813B9094AB3
S214403100074B1A60064B1B681A180749914204DBA6
S2144031101046034A1060184670474FF0FF3070471D
S214403120CC0B0020C0F70020FCFF01204FF0FF3002
S214403130704700BF4FF400534B600020704700BFFD
S21440314001207047002070472DE9F0472E484FF089
S21440315020514FF480422D4B984700280CBF4FF02B
S214403160FF3401242A4B1B7813F0FF0F34D0294F2D
S214403170D7F80090DFF8B08038F819A01FFA8AFA1E
S214403180254D28460121254EB04750441FFA80FA67
S21440319028F819A0D7F80090DFF8908038F819A0E2
S2144031A01FFA8AFA28460221B04750441FFA80FA8E
S2144031B028F819A0D7F80080194F37F818901FFA4A
S2144031C089F928460321B04748441FFA80F927F872
S2144031D018902846134B98470E4B1A6814441C60A8
S2144031E01B68002B04DA0B4B1A6802F5FA521A6079
S2144031F0084B1B68B3F5FA5F04DB064B1A68A2F56A
S214403200FA521A60BDE8F087000E0E40E5284000EE
S214403210D00B0020380C002000000940ED2A40006A
S2144032203C890020DD2A40003C0C0020BC4A00209F
S214403230F0B589B004466249624B984738B962484F
S214403240624CA047624B19686248A047B5E02046EA
S21440325061495C4B984730B900225D4B1A605A482A
S2144032605A4B9847A9E020465C49564B984790B938
S2144032705B4B1B7813F0FF0F03D05A48534B9847CD
S2144032809BE05948594B98470122554B1A704E4877
S2144032904E4B984791E0204655494A4B984778B957
S2144032A04F4B1B7813F0FF0F03D15248474B9847BC
S2144032B083E000224A4B1A704348444B98477CE0D0
S2144032C020464D4905224D4B9847002850D1444B47
S2144032D01B7813F0FF0F03D049483C4B98476CE0EF
S2144032E004AB00932046474902AA03AB464CA0478E
S2144032F0032803D04548354B98475EE0029B022B97
S21440330003D94348314B984757E0039BB3F5FA5FE0
S21440331005D2049AB2F5FA5F01D2934203DD3D48E6
S2144033202A4B984749E02848284B98473A4B93E819
S214403330070008AB03E90700039C049B9C4211DC92
S2144033406500364F214E029B08AA02EB830353F8D2
S2144033500C3C595B384689B2B04701340235049B71
S214403360A342F0DA2E48194CA0471748A04724E05D
S21440337020462C49134B9847D8B9194B1B7813F065
S214403380FF0F03D02848114B984716E04FF47A5564
S214403390264800212A46264CA047264800212A4691
S2144033A0A047254800212A46A0470748074B98478C
S2144033B003E022482146054B984709B0F0BD00BFC0
S2144033C004CF4000CD3940000CCF4000ED354000E2
S2144033D0380C002010CF400018CF400020CF4000CF
S2144033E0D00B002028CF400000000940DD2A4000D6
S2144033F04CCF400054CF400074CF4000493C400082
S2144034007CCF4000ACCF4000ED384000C0CF4000FD
S214403410F0CF400008D04000F8CE400028D0400012
S214403420C4D040002CD0400034D040003C0C00209B
S21440343049374000BC4A00203C89002064D0400008
S2144034402DE9F043C3B03F4B98473F4B9847012781
S2144034503E4B1F70BFF35F8F62B63D4B98471620BA
S2144034603C4EB0471720B0471820B0470920B04719
S214403470394C20464FF08051384A0023DFF81491EB
S214403480C847374D284639460522DFF80C81C047E5
S214403490284602210622C047284603210722C04765
S2144034A0284639462F4FB84728460221B84728466F
S2144034B00321B8470920B04720464FF020514FF42B
S2144034C040420023C847284B0093204609214FF42A
S2144034D000427023254DA84720464FF40041022263
S2144034E0234B98474FF40072224B1A60204609211E
S2144034F00022214B984720464FF400411F4B9847E7
S21440350000241F4E1F4F18E0FF2C02D138461E4B9A
S21440351098471E4B9847C0B20A2801D00D2808D1BC
S21440352002A800250555611CC9B2194B98472C4680
S21440353003E0621C02A90855D4B2B0470028E3D184
S214403540FBE700BF452B4000AD2B4000E8000020C5
S214403550250F4000AD2D4000000E0E4010000030FC
S21440356000000940E52A400049314000E50F400090
S2144035708D29400000E100E085104000AD2A400063
S214403580FD05400084D04000ED354000B9064000BF
S21440359031324000E9294000C12A400070B50F4E44
S2144035A00F4D761BB61007D0043D0024013455F865
S2144035B0043F9847A642F9D10A4E0B4D761B09F0B8
S2144035C0A1FFB61008D0043D0024013455F8043F4E
S2144035D09847A642F9D170BD70BD00BF10D54000D7
S2144035E010D5400018D5400010D540000FB400B5A7
S2144035F0074A83B004AB106853F8042B81680193E4
S21440360001F0F6FA03B05DF804EB04B0704700BF73
S21440361018050020844641EA000313F003036DD1E9
S214403620403A41D351F8043B40F8043B51F8043B40
S21440363040F8043B51F8043B40F8043B51F8043B47
S21440364040F8043B51F8043B40F8043B51F8043B37
S21440365040F8043B51F8043B40F8043B51F8043B27
S21440366040F8043B51F8043B40F8043B51F8043B17
S21440367040F8043B51F8043B40F8043B51F8043B07
S21440368040F8043B51F8043B40F8043B51F8043BF7
S21440369040F8043B51F8043B40F8043B51F8043BE7
S2144036A040F8043B403ABDD2303211D351F8043B87
S2144036B040F8043B51F8043B40F8043B51F8043BC7
S2144036C040F8043B51F8043B40F8043B103AEDD236
S2144036D00C3205D351F8043B40F8043B043AF9D287
S2144036E0043208D0D2071CBF11F8013B00F8013B5A
S2144036F001D30B8803806046704700BF082A13D367
S2144037008B078DD010F003038AD0C3F10403D21A7E
S214403710DB071CBF11F8013B00F8013B80D331F8B2
S214403720023B20F8023B7BE7043AD9D3013A11F832
S214403730013B00F8013BF9D20B7803704B7843709D
S2144037408B78837060467047F0B4840743D0541E2D
S214403750002A3ED0CDB2034603E0621E002C38D08D
S214403760144603F8015B9A07F7D1032C2AD9CDB249
S21440377045EA05250F2C45EA054515D9A4F110075D
S2144037803F0903F1100606EB07161A46156055600A
S2144037909560D5601032B242F8D104F00F0401377C
S2144037A0032C03EB07130DD91E462246043A032A80
S2144037B046F8045BFAD8221F22F003020432134470
S2144037C004F003042CB1C9B21C4403F8011BA34205
S2144037D0FBD1F0BC704714460346C6E700290CBF31
S2144037E0022200224FF4806300F000B82DE9F04139
S2144037F03C4C25688846044616461F4615B1AB6BBA
S214403800002B4FD0022E30D8002F2EDB28462146E4
S21440381002F096F9A38900226260A2611A0628D4B3
S21440382023F083039BB2022EA3812DD0B8F1000F64
S2144038303CD0012E13D09BB203F008002A4AEA631C
S21440384080B2C4F80080C4F81080676178B113F085
S214403850030F18BF0027A7600020BDE8F08143F0A3
S21440386001037A42A381A261E5E74FF0FF30BDE84D
S214403870F0812846216902F0C1FAA38923F0830328
S2144038809BB2022EA381D1D1002004F1430243F023
S214403890020300250121A381A560226022616161A7
S2144038A0BDE8F081284602F067F9ABE7002F08BF75
S2144038B04FF48067384602F0C1FD804628B1A389A0
S2144038C043F080039BB2A381B3E74FF4806002F0DD
S2144038D0B5FD804618B9A3894FF0FF30D5E74FF4C1
S2144038E08067ECE7180500206D5B40000EB4F0B52D
S2144038F09CB021AC4FF4017254F8046BADF8142020
S2144039000290069000F070F90C4B01940546324642
S2144039100B4F1868039523464FF6FF76002402A9FE
S21440392007950A970E941394ADF8166000F0E6F9E2
S2144039301CB0BDE8F04003B0704700BF180500203B
S2144039406939400010B50C46B1F90E1003F00AF97B
S214403950002803DB236D0344236510BDA38923F4AD
S2144039608053A38110BD00BF002070472DE9F04171
S2144039700C4689891D46CB051646074606D5B4F93A
S2144039800E100022022302F0D5FCA18921F48051BA
S214403990A1813846B4F90E1032462B46BDE8F041B8
S2144039A001F08CBF10B50C46B1F90E1002F0C2FC07
S2144039B0A389421C0EBF23F4805343F480532065F2
S2144039C0A38110BDB1F90E1001F0FEBF40EA010C14
S2144039D01CF0070F23D1BDF1100DCDE90245CDE90E
S2144039E000676FF000064FF0000700BFF0E80223C4
S2144039F0F1E80245A24282FA46FCA7FA86FC08BFD6
S214403A00BCF1000F40F0D780AB4283FA46FCA7FAE1
S214403A1086FC08BFBCF1000F40F0CA80E6E710F015
S214403A20030C21D020F0030050F8042B5FEACC7C36
S214403A3008D00FD211F801CB5FFA92F3B3EB0C0C1F
S214403A4010D17BB111F801CB5FFAA2F3B3EB0C0CAB
S214403A5008D13BB111F801CB5FFAB2F3B3EB0C0CD3
S214403A6000D10BB960467047BDF1100DCDE9024557
S214403A70CDE900676FF000064FF0000711F0030C29
S214403A802DD110F0040F0DD050F8042B51F8044BF4
S214403A90A24282FA46FCA7FA86FC08BFBCF1000F99
S214403AA040F0898011F0040F9FD051F8045B00BFAE
S214403AB0F0E80223AA4282FA46FCA7FA86FC08BF30
S214403AC0BCF1000F71D1F1E80245A34283FA46FCEF
S214403AD0A7FA86FC08BFBCF1000F63D1E8E721F0E7
S214403AE00301BCF1020F1ED03BDA51F8045B00BF65
S214403AF050F8043B4FEA152583FA46FCA7FA86FCA5
S214403B00B7EB0C2F03EA162208BFAA424DD151F854
S214403B10045BBCF1000F82EA03034FEA056208BF6C
S214403B2093423CD1E4E751F8045B00BF50F8043BB5
S214403B304FEA154583FA46FCA7FA86FCB7EB0C4FCE
S214403B4003EA164208BFAA422FD151F8045BBCF1E3
S214403B50000F82EA03034FEA054208BF93421ED194
S214403B60E4E751F8045B00BF50F8043B4FEA1565A4
S214403B7083FA46FCA7FA86FCB7EB0C6F03EA16629C
S214403B8008BFAA4211D151F8045BBCF1000F82EA8B
S214403B9003034FEA052208BF934200D1E4E719BA6F
S214403BA012BA0AE019BA22BA07E011BA2ABA04E0F1
S214403BB019BA2ABA01E011BA22BA9CFA8CF0DDE9A9
S214403BC00067DDE902451DF1100D38B1B0FA80F00E
S214403BD0C0F1180021FA00F122FA00F201209142C9
S214403BE098BF8041704700BF20F0030110F00300EB
S214403BF0C0F1000051F8043B00F1040C4FEACC0C35
S214403C006FF000021CBF22FA0CF213434FF0010C77
S214403C104CEA0C2C4CEA0C4CA3EB0C0222EA0302B6
S214403C2012EACC1204BF51F8043B0430F4D013F02F
S214403C30FF0F1FBF013013F47F4F013013F47F0F87
S214403C4018BF0130704700BF30B4002A4AD040EA5F
S214403C50010313F003032DD1032A2BD904680D6802
S214403C60AC4227D1043A3DD0A4F1013525EA0404FC
S214403C7014F0803F3CD10C4603460EE05B68646817
S214403C80A3F10135A34225EA030513D1043A29D00E
S214403C9015F0803F29D103460C46032A00F1040064
S214403CA001F10401EAD8551E2AB918792279801AFA
S214403CB030BC7047551E03780A7893421AD1DDB15E
S214403CC0B3B16C1C0C448B1C014604E0A3420CD0E0
S214403CD001330028ECD011F8010F13F8012C904264
S214403CE0F4D0E4E7104630BC7047002030BC704744
S214403CF01846DDE71846DAE72846D9E72DE9F04FBB
S214403D000D468989ADF52F7D8C040E90069306D41A
S214403D106B6E41F4005123F40053A9816B669246C2
S214403D2000241AF8013B09940C94A1460B94DFF842
S214403D30E4830E9E139343B3D8F80010C818407817
S214403D4000F0080000F0FF0720B36B680EE02B6819
S214403D50D8F8002019780A440133527810070DD558
S214403D606A682B60531E09F101096B60002BEEDC7C
S214403D703046294604F03CFC0028E8D0524692469D
S214403D801AF8013B1393002BD6D10B980DF52F7DD7
S214403D90BDE8F08F252B40F0848053783C460AF1EE
S214403DA00102782B00F2E582DFE813F08F00E30291
S214403DB0E302E302E302E302E302E302E302E30296
S214403DC0E302E302E302E302E302E302E302E30286
S214403DD0E302E302E302E302E302E302E302E30276
S214403DE0E302E302E302E302E302E302E302E30266
S214403DF0E302E302E3027900E302E302E302E302C2
S214403E002602E302E302E302E302E3024F024F022A
S214403E104F024F024F024F024F024F024F024F02D5
S214403E20E302E302E302E302E302E302E302E30225
S214403E30E302E3022C027302E3027302E302E302AC
S214403E40E302E3026D02E302E3026302E302E302FB
S214403E50E302E302E302E302E302E3025902E3027F
S214403E60E3029302E302E302E302E302E302E30235
S214403E70E3028D029E02730273027302870295006C
S214403E80E302E302B602E30279027702AC02E302FF
S214403E90E302A802E302A002E302E3025902079209
S214403EA092466B68002B40F357852B681AF8012C16
S214403EB0197891427FF469AF6A680133013A6A60C3
S214403EC02B6009F10109524659E74FF0FF300DF5D6
S214403ED02F7DBDE8F08F079200238D4A09920C9300
S214403EE04FF0030A6B68002B40F39981790612D590
S214403EF00AF1FF3ABAF1030F00F2B780DFE81AF092
S214403F00DA008E001E0044023046294604F070FB5C
S214403F10002840F08B81D8F800102B6800E02B601A
S214403F201A780A44013352781207E1D56A68013A92
S214403F30002A09F101096A60F1DCE5E7631EB3F582
S214403F40AE7F86BF6FF4AE71631800234FF0000B50
S214403F500DF5AC7C08935B46B3460C9ECDF814C07A
S214403F60E24688BF40F25D1447F45867CC4628685E
S214403F700178A1F12B024D2A00F2E280DFE812F030
S214403F802601E0002601E000E000FD00CC00CC0069
S214403F90CC00CC00CC00CC00CC0036013601E00092
S214403FA0E000E000E000E000E000E0002101210148
S214403FB02101210121012101E000E000E000E000B4
S214403FC0E000E000E000E000E000E000E000E000AC
S214403FD0E000E000E000E000E0002B01E000E00050
S214403FE0E000E000E000E000E000E0002101210108
S214403FF02101210121012101E000E000E000E00074
S214404000E000E000E000E000E000E000E000E0006B
S214404010E000E000E000E000E0002B01002C08BFDC
S2144040204FF0FF3417F0010340F07F81F90640F16E
S21440403090831F46D8F800102B681A780A4401333C
S2144040405278120731D46A682B600137013ABC4275
S2144040506A602AD0002AF0DC3046294604F0C8FAC6
S21440406018BBD8F800102B68E7E7002C08BF0124DF
S21440407017F0010340F09F83F90640F154841F4631
S21440408008E01A442A601F44E41A04F0B1FA0028F3
S21440409040F041846B682A68A34230462946F0DBEC
S2144040A01B1B22446B6027442A60DDF81CA0B944E1
S2144040B0524664E6002C08BF4FF0FF34FA0640F143
S2144040C015832B6800270DF1580B1A781BF8022031
S2144040D00133AAB16A682B600137013ABC426A6074
S2144040E0E3D0002AF1DC3046294604F081FA002865
S2144040F0DBD12B681A781BF802200133002AE9D15D
S214404100002F3FF442AEB944DDF81CA0D0E700BF14
S214404110118040001C050020DFF8649339F91660D2
S21440412027F438676A688AF80010013A002A0AF1CC
S214404130010A6A6038DD01302860013C7FF417AF21
S214404140F9050C96E1465E469B4608D5059CA24579
S21440415000F20A84DDF814C0E2453FF416AE17F0CC
S214404160100400F07283DDF814C0CCEB0A0AD34486
S214404170DDF81CA0D944524601E63A05D2D516B918
S21440418047F4007708267A0500F17D83089A27F4DD
S214404190607712B1013A089201346A68013A002AFF
S2144041A003F101036A60C6DC584629460393CDF8FE
S2144041B010C004F01DFA039BDDF810C00028BCD0E8
S2144041C0BEE70A2EBCDD27F43867ABE73A06B7D51C
S2144041D027F08007A6E707F4C062B2F5007FAFD1AC
S2144041E027F4007747F4A06710269BE7A44A32F9E5
S2144041F01660082EE7DCA3E79AF8013047F0100770
S2144042009246CCE5079247F001076B689D480990B7
S2144042100A21002B0C914FF0030A3FF767AE304659
S214404220294604F0E5F900283FF460AE0B9C002CCC
S2144042303FF44BAEAB89204613F0400F18BF4FF00B
S214404240FF300DF52F7DBDE8F08F04EB840403EBC3
S2144042504403A3F130049AF8013092469FE5079252
S2144042601023894A099247F400770C934FF0030ACB
S21440427038E6079247F00107834A099208230C93D1
S2144042804FF0030A2EE69AF8013047F002079246AE
S21440429085E507924FF0040A24E60792ECE7F90614
S2144042A0079262D47B0740F18183069C23680434DE
S2144042B09246A3F80090069460E59AF8013047F0DD
S2144042C0040792466BE5079247F040074FF0000A16
S2144042D008E6114616A8079202F078FE47F0400717
S2144042E007904FF0010AFDE507928EE76648079271
S2144042F00A2109900C914FF0030AF3E507924FF01C
S214404300020AEFE560480792102147F408770990C3
S2144043100C914FF0030AE5E59AF801306C2B00F05B
S214404320368347F00107924639E514A80021082253
S2144043300A90FFF709FA17F0100B00F0BD820DF156
S2144043404C0A00222968D8F8003009780B445B787C
S214404350180702D4002C40F07283BBF1000F04D142
S214404360CAF800B00B9C01340B94DDF81CA05246F2
S21440437005E50B4407925B7803F00303012B7FF4BB
S21440438044AF47F0010740E7304601F0CFFF631ED9
S21440439000680F90B3F5AE7F40F2A5816FF4AE7023
S2144043A004440D9440F25D144FF0000A0DF5AC7CC9
S2144043B00E96CDF814C047F4F0675346CDF844A0A7
S2144043C0CDF840A0CDF820A0CDF828A0E34656462C
S2144043D028680278A2F12B014E2900F25681DFE8C8
S2144043E011F07E0054017E005401540172005500C5
S2144043F055005500550055005500550055005500D0
S21440440054015401540154015401540154014F01C4
S21440441054015401540135012E0154015401A400A5
S21440442054015401540154018F0054015401540165
S214404430540154018900540154015401540183002D
S21440444054015401540154015401540154014F0184
S21440445054015401540135012E0154015401A40065
S21440446054015401540154018F0054015401540125
S21440447054015401890054015401540154018300ED
S214404480D0D0400011804000C182400003EB0A01BA
S21440449099B927F4C0778BF800200BF1010B6A68B6
S2144044A0013A002A04F1FF3409F101096A6040F339
S2144044B0FA8001302860002C8AD10896089C0E9E0F
S2144044C0002C41D00CE1F905E0D50D9A27F0800785
S2144044D00136002AE3D0013A0D920134DFE739066F
S2144044E0EBD527F08007D6E7BAF1070FE5D14FF0B6
S2144044F0080AD0E7BAF1060FDFD14FF0070ACAE73D
S214404500002B40F0E6802EB907F4E061B1F5E06F8D
S21440451000F03982BAF1010F02D0BAF1040FCCD1C3
S2144045200AF1010A5FFA8AFAB5E7BAF1000F40F0DD
S214404530C780002E40F0D28007F4E061B1F5E06F0E
S21440454000F01C8208960E9E03F1FF3CBCF1010F62
S21440455040F2DC820AF1FF32062A22D8BAF1020F74
S21440456040F2AD82BAF1030F1BD0AAF1040A5FFAFB
S2144045708AFA0BF1FF34CDF834A0CAEB0404DA46CD
S2144045801AF8011D30462A4603F0F2FFA245F7D13D
S214404590DDF834C009F1FF396FEA0C02CCEB0909AB
S2144045A09344F8051CD5790500F19B821BF8011C45
S2144045B065290BF1FF3409F1FF3A0BD0452909D0A4
S2144045C030462A4603F0D4FF1BF8021CA9F1020A23
S2144045D0ABF1020430462A4603F0CAFFD146A34652
S2144045E017F010027FF4C1AE07F4C061B1F5806FDA
S2144045F08BF8002000F0D381109C002C40F06E8198
S21440460000220599304602F063FDFA0782468B4643
S21440461000F13281BB0740F1E881DDF818C0DCF8D4
S21440462000300CF1040CCDF818C0C3E900AB0B9C6D
S214404630DDF81CA001340B945246FFF7A0BBBAF13C
S214404640020F7FF43AAF4FF0030A24E707F4A06165
S214404650B1F5806F05D079057FF52FAF002E3FF47A
S21440466071AFB90506D4DDF828C0CDF844B0CCEB20
S2144046700606109627F4F06747F4C07700260AE748
S214404680012B7FF41AAF022305E7DDF83CC09CF807
S214404690001091427FF411AFB9057FF50EAF27F4B5
S2144046A020770A96F7E60E980393294603F0A0FF74
S2144046B0039B00287FF401AF002C7FF489AEFCE614
S2144046C0BAF1030F3FF42CAFBAF1050F3FF428AF11
S2144046D0F3E6022B7FF41EAF0323DCE608960E9E1D
S2144046E027F4807730E700220D925DE6DDF818C0AB
S2144046F0DCF800700CF104020692BA460DF1580B35
S2144047002B681A781BF80220591CA2B16A682960E7
S214404710013A6A601B780AF8013B013C0BD06B6893
S214404720002BEDDC3046294603F062FF0028E7D038
S21440473057453FF47BADBAEB07073FF426AB0B9CDF
S214404740002301348AF800300B94B944DDF81CA0ED
S214404750AEE4DDF818C0DCF800700CF1040ABB4685
S2144047602B68D8F8002019780A44591C527810074C
S21440477011D46A682960013A6A601B780BF8013BDD
S214404780013C08D06B68002BEADC3046294603F033
S2144047902FFF0028E4D00B9CCDF818A0DDF81CA015
S2144047A0C7EB0B0700230134B9440B948BF8003059
S2144047B05246FFF7E4BA14AB1846002108220A9383
S2144047C0FEF7C2FF17F010070D976CD04FF0000AA7
S2144047D008960D9ECDF814904FF0000B56AF01F0A2
S2144047E09FFD58453FF422AD2B68696813F801EBEE
S2144047F00A982B6001390BF1010900904B4669601D
S214404800089807F80BE051463A4602F0BBF8431CBE
S2144048103FF40CAD002877D10EB9CAF80060059970
S21440482049440591013C002E72D10AF1040AB34670
S2144048306B68002B2ADD002CD1D1DDF81490089E41
S2144048400D9C002C3FF48EAD8FE522468AF8004042
S214404850304605990C9B099CA047BA0635D5DDF82D
S21440486018C0DCF800300CF1040CCDF818C0186005
S2144048700B9C01340B9476E4069C2368043406941F
S214404880C3E900ABD3E627F4B0674BE40898294663
S21440489003F0AEFE0028CED0DDF81490089EBBF1A3
S2144048A0000FCDD0C2E4DDF818C0DCF800A00CF153
S2144048B0040CCDF818C08BE7DDF818C0DCF800A073
S2144048C00CF1040CCDF818C03BE57B0740F19B800B
S2144048D0069C2368043406941880C9E7DDF844C073
S2144048E030460CF101010A2303F092FBDDF844B098
S2144048F0021B0DF2AB218B4528BF0DF2AA2B584662
S2144049009B4902F09FFB7BE6023088D1CB468FE77F
S2144049104FF0000B8CE7002F3FF488ACB944DDF82D
S2144049201CA0FFF7C5BBDDF818C02346DCF8001016
S21440493000953046012203F079FE069C231D002890
S2144049403FF474AC0B9CDDF81CA006930134814404
S2144049500B945246FFF713BA3046294603F048FEFA
S21440496000283FF4A2AA61E41AF8011C30462A4601
S21440497003F0FEFD0AF1FF3AFFF7ECBB27F4F067C1
S2144049804FF0010A87E527F4F067012383E59AF89C
S214404990023047F002070AF1020AFFF700BA089B06
S2144049A00A9C191B4A420029A3D129E6FC070ED4CB
S2144049B0B8070CD5069CDDF81CA021684A464FEA8D
S2144049C0E97304340694C1E90023FFF7D7B9DDF84C
S2144049D018C0DDF81CA0DCF800300CF1040CC3F85D
S2144049E00090CDF818C0FFF7C9B9069C271D24686B
S2144049F002F0B2FA002856D05046594607F056FF05
S214404A000697206013E617F001027FF428AFBC0734
S214404A1040F19780574B099C05999C4230460C9B29
S214404A2000F0A28003F07EFBDDF818C0DCF8003012
S214404A300CF1040CCDF818C0C3E9000118E7049245
S214404A4001F06EFC049A90423FF4F0AB2B68696824
S214404A5013F801EB0A982B600DF5AC7C571C013916
S214404A6000903B4669600CF802E03046514662468C
S214404A7001F088FF431C3FF4D9ABC8B9CAF8000020
S214404A8001F03CFC002853D0002F3FF466AC56ACF7
S214404A903C44013F304614F8011D2A4603F068FDA9
S214404AA0002FF6D159E402F0C9FA06972060BEE519
S214404AB0023028D16B68002B4BDD3A4642E4059C19
S214404AC0A34588BF5C467FF660A914F8011D0E9882
S214404AD02A4603F04DFDDDF814904C45F5D1FFF71E
S214404AE054B9DDF814C0E3457FF64FA95C4614F888
S214404AF0011D0E982A4603F03BFDDDF814904C4508
S214404B00F5D1FFF742B9DAF80000B9E7DDF81490BE
S214404B10CB457FF63AA95C4614F8011D0E982A4606
S214404B2003F026FDDDF814C06445F5D1FFF72DB936
S214404B30B944013CBBF1000F09D10AF1040A5F46B3
S214404B40B8E7069C236804340694186090E6074647
S214404B50B0E73046294603F04BFD0028ADD0002F85
S214404B607FF464ABFFF7F9BB03F03AFC5CE700BFA9
S214404B70F4D04000C18240004B6E2DE9F0479C04C3
S214404B800E46804691462AD59368126802F1080A76
S214404B901BB31AE9A000BF0817D0043D002401E06B
S214404BA0A74210D0404655F8041F324601F07AF826
S214404BB0431C04F10104F3D10023C9F80830C9F8B6
S214404BC00430BDE8F087D9F80830A3EB8703C9F86E
S214404BD008300AF1080A002BDBD10020ECE701F090
S214404BE0DBF90023C9F80830C9F80430BDE8F0877F
S214404BF02DE9F04FB1B01C460291904608930690BE
S214404C0018B1836B002B00F0E880029DAB899AB206
S214404C10900407D46A6E43F4005322F40051AB81EB
S214404C209AB26966110740F1B780DDF808B0DBF844
S214404C301030002B00F0B08002F01A020A2A00F072
S214404C40B78000230DF180090A93159314930993B6
S214404C50CDF84C904E4698F80030002B00F0C484B7
S214404C60252B00F0C18408F1010201E0252B04D079
S214404C70144601322378002BF8D1C8EB040595B1D1
S214404C80149B159AC6F8008001332A44072B75609A
S214404C90159214937BDD002A40F0D4840998149230
S214404CA028444E4609902378002B00F0E9830021E3
S214404CB04FF000024FF0FF3C63788DF84720049198
S214404CC08A4604F101080846654608F10108A3F142
S214404CD02002582A00F2D582DFE812F0C702D3023B
S214404CE0D302CE02D302D302D302D302D302D302DC
S214404CF07E028B02D30284008F02D3022B019401E2
S214404D0094019401940194019401940194019401B6
S214404D10D302D302D302D302D302D302D302D302A6
S214404D20D302D3023001D302D302D302D302D3023A
S214404D30D302D302D302D302D3027901D302D302E1
S214404D40D302D302D302A201D302D302BD01D302BF
S214404D50D302D302D302D302D302D302D302D30266
S214404D60D302E201F801D302D302D3021402F801BF
S214404D70D302D3021902D3022602890064027902C2
S214404D80D3023802D3021901D302D302AB0208364B
S214404D9009982844099086E70698029900F0A2FDF3
S214404DA0B0B9029DAA8902F01A020A2A7FF449AFD6
S214404DB0DDF808B0BBF90E30002BFFF642AF069880
S214404DC059464246234600F03DFD31B0BDE8F08FDF
S214404DD04FF0FF3031B0BDE8F08F00F0CDFE14E765
S214404DE0404208934AF0040A98F800306DE71AF0FB
S214404DF020030490AC4600F0F280DDF820B00BF1C2
S214404E00070323F0070303F108040894D3E9004599
S214404E1000234FF0000000218DF84700CDF814C065
S214404E200791BCF1000FA8BF2AF0800A54EA050299
S214404E3040F0AD80BCF1000F40F0A980002B40F060
S214404E40BC831AF0010F00F0B88330AF302307F868
S214404E50413DC7EB09040594DDF814B0079CE345D3
S214404E60B8BFE346CDF80CB01CB10BF1010BCDF842
S214404E700CB01AF00205079505D0DDF80CB00BF122
S214404E80020BCDF80CB01AF084030B9340F0178257
S214404E90049DDDF80CB0CBEB0504002C40F30F82EC
S214404EA0102C40F38884BD4D159A14982B464FF02D
S214404EB0100B25466446B4461E4606E0831C0CF19D
S214404EC0080C0846103D102D11DD411C10320729F4
S214404ED015928CE840081491F0DD002A40F0E281FB
S214404EE0103D102D4FF001031046CC46EDDC314608
S214404EF06646A4462C460D462244072B159235603E
S214404F007460149300F369830836591CDAE11AF08A
S214404F10200F0490AC4600F08B80089DEB1D23F0DC
S214404F20070303F1080BD3E90045CDF820B0012371
S214404F306FE74AF0800A98F80030C6E64AF0100A52
S214404F401AF0200F0490AC468DF8471000F0C6804B
S214404F50089CE11D21F00701D1E9002308310891A2
S214404F6014461D46002A73F10000C0F2CD83BCF102
S214404F70000F9DF847100791A8BF2AF0800A54EA10
S214404F800502CDF814C04FF001033FF453AF012B98
S214404F9000F01583022B0DF17F0340F048820A98FB
S214404FA01946220904F00F0442EA05720F462B09FF
S214404FB0015D397052EA030B14461D4607F1FF3176
S214404FC0EFD1CDE90E23C7EB0903059344E74AF03A
S214404FD0100A1AF020030490AC467FF40EAF1AF085
S214404FE0100240F00F831AF0400300F00B83DDF808
S214404FF020B0BBF800400BF1040B13460025CDF85B
S21440500020B006E7A3F13002002018F8013B00EB81
S214405010800002EB4000A3F13002092AF5D956E69B
S2144050204AF0100A1AF0200F0490AC467FF475AF91
S2144050301AF0100F40F0EC821AF0400F00F0E882B1
S214405040DDF820B0BBF800400BF1040B002501232F
S214405050CDF820B0DDE6AC461AF0200F504D049057
S2144050608DF847100A9500F0EE80089DEA1D22F064
S2144050700702D2E9004502F1080BCDF820B01AF03D
S214405080010F00F0A88254EA050B00F0A4823022FB
S2144050908DF849304AF0020A8DF848200223B8E6D7
S2144050A0089BDDF820B01B68049001244FF00005F3
S2144050B00BF1040B03948DF847508DF85830CDF81B
S2144050C020B0059416AF4FF0000CD2E61AF0200F31
S2144050D00490AC468DF847107FF43AAF1AF0100FA4
S2144050E040F0A4821AF0400F00F0A082DDF820B015
S2144050F0BBF900400BF1040BE51722462B46CDF8D2
S21440510020B02FE74AF0400A98F80030DDE598F8DE
S214405110003042466C2B03BF08F101084AF0200AD3
S21440512053784AF0100AD0E51AF0200F8DF8471051
S21440513000F0F882089C2168099CE5172B46089DDC
S214405140224604350895C1E9002384E5089C04906E
S2144051502768AC464FF000058DF847500434002FC2
S21440516000F03483BCF1000F3846C0F20883624634
S2144051700021CDF804C001F049FCDDF804C0002849
S21440518000F03C83C01B6045A8BF60469DF8475072
S2144051900590089407954FF0000C5DE63CD1400022
S2144051A0FCD04000089A049030238DF8483002F135
S2144051B0040B7823AF488DF84930AC461468CDF8D8
S2144051C020B04AF0020A00250A90022321E64AF05F
S2144051D0200A98F8003078E5DDF820B0DBF80000CB
S2144051E000280BF10403FFF6FBAD089398F8003057
S2144051F06BE598F800302B2167E598F800302A2BAD
S21440520008F1010400F00983A3F13002092A98BF8F
S214405210002500F2FE8214F8013B05EB850502EB03
S2144052204505A3F13002092AF5D945EAE575A046B9
S2144052304DE5904C04901AF0200FAC460A948DF839
S21440524047107FF412AF1AF0100F40F0E9811AF0C1
S214405250400F00F0E581DDF820B0BBF800400BF1D0
S214405260040B0025CDF820B009E798F80030002957
S2144052707FF42BAD202128E54AF0010A98F800304B
S21440528023E504908DF84710002B00F0F9800125A7
S2144052904FF0000B03958DF858308DF847B00595C4
S2144052A016AF10E70698029913AAFFF765FC002888
S2144052B040F0ED801498159A431CCC4602E6149BA9
S2144052C0159A591C9DF8470068B101320DF1470008
S2144052D0012307291592149186E8090000F360819E
S2144052E00B4608360131079C64B1023212A80223ED
S2144052F007291592149186E8090000F357810B465A
S214405300083601310B9D802D00F00181059DC5EBCF
S2144053100C04002C2FDD102C574D22DD30464FF06C
S214405320100B2E462546069C06E003F1020C08307C
S2144053300B46103D102D10DD591C103207291592D2
S21440534080E840081491F0DD002A63D1103D102D0E
S2144053504FF0010C13464846EEDC2C466146354677
S214405360064622440729159235607460149100F36E
S214405370C18008360131059D37602A4407291592B9
S2144053807560149140F3C180002A40F03081149239
S2144053904E461AF0040F00F08B80049DDDF80CB0EA
S2144053A0CBEB0504002C40F38380102C40F3228284
S2144053B01499324DDDF818A0DDF808B0102705E046
S2144053C0881C08361946103C102C10DD4B1C103239
S2144053D0072B159286E8A0001493F1DD002A7DD1B4
S2144053E0103C102C4FF0010011464E46EEDC224495
S2144053F00728159235607460149059DD002A4FD105
S214405400099CDDF80CB0049DAB45ACBF5C44641908
S21440541009945EE02046029913AAFFF7ADFB0028E8
S21440542035D1149B159A03F1010C484681E7E008F4
S21440543040EA457004F00702E908303250EA010BB2
S2144054401F461A7004460D4603F1FF33EFD11AF09B
S214405450010FCDE90C01394600F0B980302A3FF4FF
S214405460F8AC1F46C7EB09053023059501F8013C0B
S214405470F2E400BF10D140002CD140003CD14000A7
S214405480159B23B10698029913AAFFF775FB029C59
S214405490A3895B063FF59CAC099831B0BDE8F08F18
S2144054A00698029913AAFFF767FB0028EFD1159AD2
S2144054B0099CDDF80CB0049DAB45ACBF5C44641958
S2144054C0099432B10698029913AAFFF755FB0028B3
S2144054D0DDD1002014904E46FFF7BDBB50465946DE
S2144054E013AAFFF749FB0028D1D11499159A481CF6
S2144054F04E4668E7002A40F0FA80059C2097012334
S21440550021941594224614934E46083641E7049D4E
S214405510DDF80CB0CBEB0504002C7FF7F7AE102C73
S214405520A84D40F3748129464FF0100B254664463B
S214405530B4460E4606E0981C0CF1080C0B46103D8F
S214405540102D0FDD591C1032072915928CE84008A3
S2144055501491F0DDBAB9103D102D4FF001001346FE
S214405560CC46EFDC33466646A4462C461D462244CF
S2144055700728159235607460149000F3B2800836A0
S214405580411C0346C2E60698029913AAFFF7F4FAAE
S21440559000287FF47CAF149B159A581CCC46CEE767
S2144055A0002A7CD119464E4613469CE6002A40F017
S2144055B08780012113464E46A4E64F464CE4002D14
S2144055C008BF0A2C49D230AF303407F8414DC7EBFC
S2144055D00903059340E402231BE4002A40F0B2800E
S2144055E0134601214E466DE64446FFF75CBB0698DF
S2144055F0029913AAFFF7C0FA00287FF448AF159A1D
S2144056004E46C6E6089D2C6804350895002500E4FD
S214405610089D2C680435089501230025FFF7F9BB43
S214405620089D2C6804350895002528E5089DDDF87A
S21440563020B02C680BF1040BE517CDF820B02246BD
S2144056402B468FE40698029913AAFFF795FA00288E
S2144056507FF41DAF4E46FFF79BBB0DF17F0B0396C5
S2144056605E46E346204629460A22002307F06EF9A6
S21440567030323270204629460A22002307F066F967
S21440568004460D4654EA0500374606F1FF36E9D192
S214405690C7EB0903DC46039E0593FFF7DDBB069880
S2144056A00299CDF804C013AAFFF766FADDF804C0E5
S2144056B000287FF4ECAE149B159A591C4E4612E611
S2144056C006980299CDF804C013AAFFF755FADDF8FC
S2144056D004C000287FF4DBAE149B159A591C4E4636
S2144056E010E6002A56D1012113464E460EE606988D
S2144056F0029913AAFFF740FA00287FF4C8AE14991F
S214405700159A01314E4636E64FF02D0B644265EB56
S21440571045058DF847B0CDF81CB0CDF814C0012330
S214405720FFF77FBB1AF0100F1DD11AF0400F59D06B
S214405730089DDDF824B02B6804350895A3F800B022
S214405740FFF789BA06980299CDF804C013AAFFF766
S21440575013FADDF804C000287FF499AE149B159A1E
S214405760591C4E46AEE5DDF820B0099CDBF800300B
S2144057700BF1040BCDF820B01C60FFF76CBA089410
S214405780FEF732FA9DF84740059007944FF0000C1C
S214405790FFF762BB06980299CDF804C013AAFFF73C
S2144057A0EBF9DDF804C000287FF471AE149B159A1F
S2144057B0591C4E46AAE5149B159A034D0133FFF734
S2144057C09BBB00BF2CD140003CD14000BCF1060F33
S2144057D034BF63460623089423EAE3740593039490
S2144057E0164F70E4089C099D2368043408941D6095
S2144057F0FFF731BA1498124D0130F8E59DF847503E
S214405800CDF814C0079508948446FFF725BB084694
S214405810ADE6A0460025FFF75ABADDF820B098F866
S2144058200130DBF800500BF10402002D0892A04630
S214405830BFF64BAA4FF0FF35FFF747BA24D14000DA
S2144058403CD140002DE9F0430C46ADF26C4DB1F82A
S2144058500C90E769496EB4F80E8019911AAD4FF472
S21440586080664FF0000E079729F00209676A009598
S2144058706946049502960596ADF80C90ADF80E80F4
S2144058800997CDF818E00646FFF7B2F9051E07DB84
S2144058903046694600F054F9002818BF4FF0FF35EF
S2144058A0BDF80C305B0603D5A38943F04003A381C3
S2144058B028460DF26C4DBDE8F08300BF70B5084C2D
S2144058C006460025084611461A462560FCF7E0FFC6
